{
  "_format": "hh-sol-artifact-1",
  "contractName": "PancakeV3Interaction",
  "sourceName": "contracts/PancakeV3Interaction.sol",
  "abi": [
    {
      "inputs": [
        {
          "internalType": "address",
          "name": "_pancakeV3Pool",
          "type": "address"
        }
      ],
      "stateMutability": "nonpayable",
      "type": "constructor"
    },
    {
      "inputs": [
        {
          "internalType": "int24",
          "name": "tickLower",
          "type": "int24"
        },
        {
          "internalType": "int24",
          "name": "tickUpper",
          "type": "int24"
        },
        {
          "internalType": "uint128",
          "name": "amount",
          "type": "uint128"
        }
      ],
      "name": "addLiquidity",
      "outputs": [],
      "stateMutability": "nonpayable",
      "type": "function"
    },
    {
      "inputs": [
        {
          "internalType": "int24",
          "name": "tickLower",
          "type": "int24"
        },
        {
          "internalType": "int24",
          "name": "tickUpper",
          "type": "int24"
        },
        {
          "internalType": "uint128",
          "name": "amount0Requested",
          "type": "uint128"
        },
        {
          "internalType": "uint128",
          "name": "amount1Requested",
          "type": "uint128"
        }
      ],
      "name": "collectFees",
      "outputs": [],
      "stateMutability": "nonpayable",
      "type": "function"
    },
    {
      "inputs": [],
      "name": "pancakeV3Pool",
      "outputs": [
        {
          "internalType": "contract IPancakeV3Pool",
          "name": "",
          "type": "address"
        }
      ],
      "stateMutability": "view",
      "type": "function"
    },
    {
      "inputs": [
        {
          "internalType": "int24",
          "name": "tickLower",
          "type": "int24"
        },
        {
          "internalType": "int24",
          "name": "tickUpper",
          "type": "int24"
        },
        {
          "internalType": "uint128",
          "name": "amount",
          "type": "uint128"
        }
      ],
      "name": "removeLiquidity",
      "outputs": [],
      "stateMutability": "nonpayable",
      "type": "function"
    },
    {
      "inputs": [
        {
          "internalType": "bool",
          "name": "zeroForOne",
          "type": "bool"
        },
        {
          "internalType": "int256",
          "name": "amountSpecified",
          "type": "int256"
        },
        {
          "internalType": "uint160",
          "name": "sqrtPriceLimitX96",
          "type": "uint160"
        }
      ],
      "name": "swapTokens",
      "outputs": [],
      "stateMutability": "nonpayable",
      "type": "function"
    },
    {
      "inputs": [],
      "name": "token0",
      "outputs": [
        {
          "internalType": "address",
          "name": "",
          "type": "address"
        }
      ],
      "stateMutability": "view",
      "type": "function"
    },
    {
      "inputs": [],
      "name": "token1",
      "outputs": [
        {
          "internalType": "address",
          "name": "",
          "type": "address"
        }
      ],
      "stateMutability": "view",
      "type": "function"
    }
  ],
  "bytecode": "0x60806040523480156200001157600080fd5b50604051620010c8380380620010c883398181016040528101906200003791906200028c565b806000806101000a81548173ffffffffffffffffffffffffffffffffffffffff021916908373ffffffffffffffffffffffffffffffffffffffff16021790555060008054906101000a900473ffffffffffffffffffffffffffffffffffffffff1673ffffffffffffffffffffffffffffffffffffffff16630dfe16816040518163ffffffff1660e01b8152600401602060405180830381865afa158015620000e3573d6000803e3d6000fd5b505050506040513d601f19601f820116820180604052508101906200010991906200028c565b600160006101000a81548173ffffffffffffffffffffffffffffffffffffffff021916908373ffffffffffffffffffffffffffffffffffffffff16021790555060008054906101000a900473ffffffffffffffffffffffffffffffffffffffff1673ffffffffffffffffffffffffffffffffffffffff1663d21220a76040518163ffffffff1660e01b8152600401602060405180830381865afa158015620001b5573d6000803e3d6000fd5b505050506040513d601f19601f82011682018060405250810190620001db91906200028c565b600260006101000a81548173ffffffffffffffffffffffffffffffffffffffff021916908373ffffffffffffffffffffffffffffffffffffffff16021790555050620002be565b600080fd5b600073ffffffffffffffffffffffffffffffffffffffff82169050919050565b6000620002548262000227565b9050919050565b620002668162000247565b81146200027257600080fd5b50565b60008151905062000286816200025b565b92915050565b600060208284031215620002a557620002a462000222565b5b6000620002b58482850162000275565b91505092915050565b610dfa80620002ce6000396000f3fe608060405234801561001057600080fd5b506004361061007d5760003560e01c806369508cc61161005b57806369508cc6146100d857806389697969146100f6578063d21220a714610112578063e3f9aa47146101305761007d565b8063081a18c2146100825780630acb53401461009e5780630dfe1681146100ba575b600080fd5b61009c600480360381019061009791906107b4565b61014c565b005b6100b860048036038101906100b39190610888565b610346565b005b6100c26103f1565b6040516100cf9190610910565b60405180910390f35b6100e0610417565b6040516100ed919061098a565b60405180910390f35b610110600480360381019061010b91906109a5565b61043b565b005b61011a610629565b6040516101279190610910565b60405180910390f35b61014a600480360381019061014591906109a5565b61064f565b005b82156101fa57600160009054906101000a900473ffffffffffffffffffffffffffffffffffffffff1673ffffffffffffffffffffffffffffffffffffffff166323b872dd3330856040518463ffffffff1660e01b81526004016101b193929190610a11565b6020604051808303816000875af11580156101d0573d6000803e3d6000fd5b505050506040513d601f19601f820116820180604052508101906101f49190610a5d565b5061029e565b600260009054906101000a900473ffffffffffffffffffffffffffffffffffffffff1673ffffffffffffffffffffffffffffffffffffffff166323b872dd3330856040518463ffffffff1660e01b815260040161025993929190610a11565b6020604051808303816000875af1158015610278573d6000803e3d6000fd5b505050506040513d601f19601f8201168201806040525081019061029c9190610a5d565b505b60008054906101000a900473ffffffffffffffffffffffffffffffffffffffff1673ffffffffffffffffffffffffffffffffffffffff1663128acb08338585856040518563ffffffff1660e01b81526004016102fd9493929190610aee565b60408051808303816000875af115801561031b573d6000803e3d6000fd5b505050506040513d601f19601f8201168201806040525081019061033f9190610b5b565b5050505050565b60008054906101000a900473ffffffffffffffffffffffffffffffffffffffff1673ffffffffffffffffffffffffffffffffffffffff16634f1eb3d833868686866040518663ffffffff1660e01b81526004016103a7959493929190610bb9565b60408051808303816000875af11580156103c5573d6000803e3d6000fd5b505050506040513d601f19601f820116820180604052508101906103e99190610c21565b505050505050565b600160009054906101000a900473ffffffffffffffffffffffffffffffffffffffff1681565b60008054906101000a900473ffffffffffffffffffffffffffffffffffffffff1681565b600160009054906101000a900473ffffffffffffffffffffffffffffffffffffffff1673ffffffffffffffffffffffffffffffffffffffff166323b872dd3330846040518463ffffffff1660e01b815260040161049a93929190610c92565b6020604051808303816000875af11580156104b9573d6000803e3d6000fd5b505050506040513d601f19601f820116820180604052508101906104dd9190610a5d565b50600260009054906101000a900473ffffffffffffffffffffffffffffffffffffffff1673ffffffffffffffffffffffffffffffffffffffff166323b872dd3330846040518463ffffffff1660e01b815260040161053d93929190610c92565b6020604051808303816000875af115801561055c573d6000803e3d6000fd5b505050506040513d601f19601f820116820180604052508101906105809190610a5d565b5060008054906101000a900473ffffffffffffffffffffffffffffffffffffffff1673ffffffffffffffffffffffffffffffffffffffff16633c8a7d8d338585856040518563ffffffff1660e01b81526004016105e09493929190610cc9565b60408051808303816000875af11580156105fe573d6000803e3d6000fd5b505050506040513d601f19601f820116820180604052508101906106229190610d4d565b5050505050565b600260009054906101000a900473ffffffffffffffffffffffffffffffffffffffff1681565b60008054906101000a900473ffffffffffffffffffffffffffffffffffffffff1673ffffffffffffffffffffffffffffffffffffffff1663a34123a78484846040518463ffffffff1660e01b81526004016106ac93929190610d8d565b60408051808303816000875af11580156106ca573d6000803e3d6000fd5b505050506040513d601f19601f820116820180604052508101906106ee9190610d4d565b5050505050565b600080fd5b60008115159050919050565b61070f816106fa565b811461071a57600080fd5b50565b60008135905061072c81610706565b92915050565b6000819050919050565b61074581610732565b811461075057600080fd5b50565b6000813590506107628161073c565b92915050565b600073ffffffffffffffffffffffffffffffffffffffff82169050919050565b61079181610768565b811461079c57600080fd5b50565b6000813590506107ae81610788565b92915050565b6000806000606084860312156107cd576107cc6106f5565b5b60006107db8682870161071d565b93505060206107ec86828701610753565b92505060406107fd8682870161079f565b9150509250925092565b60008160020b9050919050565b61081d81610807565b811461082857600080fd5b50565b60008135905061083a81610814565b92915050565b60006fffffffffffffffffffffffffffffffff82169050919050565b61086581610840565b811461087057600080fd5b50565b6000813590506108828161085c565b92915050565b600080600080608085870312156108a2576108a16106f5565b5b60006108b08782880161082b565b94505060206108c18782880161082b565b93505060406108d287828801610873565b92505060606108e387828801610873565b91505092959194509250565b60006108fa82610768565b9050919050565b61090a816108ef565b82525050565b60006020820190506109256000830184610901565b92915050565b6000819050919050565b600061095061094b61094684610768565b61092b565b610768565b9050919050565b600061096282610935565b9050919050565b600061097482610957565b9050919050565b61098481610969565b82525050565b600060208201905061099f600083018461097b565b92915050565b6000806000606084860312156109be576109bd6106f5565b5b60006109cc8682870161082b565b93505060206109dd8682870161082b565b92505060406109ee86828701610873565b9150509250925092565b6000819050919050565b610a0b816109f8565b82525050565b6000606082019050610a266000830186610901565b610a336020830185610901565b610a406040830184610a02565b949350505050565b600081519050610a5781610706565b92915050565b600060208284031215610a7357610a726106f5565b5b6000610a8184828501610a48565b91505092915050565b610a93816106fa565b82525050565b610aa281610732565b82525050565b610ab181610768565b82525050565b600082825260208201905092915050565b50565b6000610ad8600083610ab7565b9150610ae382610ac8565b600082019050919050565b600060a082019050610b036000830187610901565b610b106020830186610a8a565b610b1d6040830185610a99565b610b2a6060830184610aa8565b8181036080830152610b3b81610acb565b905095945050505050565b600081519050610b558161073c565b92915050565b60008060408385031215610b7257610b716106f5565b5b6000610b8085828601610b46565b9250506020610b9185828601610b46565b9150509250929050565b610ba481610807565b82525050565b610bb381610840565b82525050565b600060a082019050610bce6000830188610901565b610bdb6020830187610b9b565b610be86040830186610b9b565b610bf56060830185610baa565b610c026080830184610baa565b9695505050505050565b600081519050610c1b8161085c565b92915050565b60008060408385031215610c3857610c376106f5565b5b6000610c4685828601610c0c565b9250506020610c5785828601610c0c565b9150509250929050565b6000610c7c610c77610c7284610840565b61092b565b6109f8565b9050919050565b610c8c81610c61565b82525050565b6000606082019050610ca76000830186610901565b610cb46020830185610901565b610cc16040830184610c83565b949350505050565b600060a082019050610cde6000830187610901565b610ceb6020830186610b9b565b610cf86040830185610b9b565b610d056060830184610baa565b8181036080830152610d1681610acb565b905095945050505050565b610d2a816109f8565b8114610d3557600080fd5b50565b600081519050610d4781610d21565b92915050565b60008060408385031215610d6457610d636106f5565b5b6000610d7285828601610d38565b9250506020610d8385828601610d38565b9150509250929050565b6000606082019050610da26000830186610b9b565b610daf6020830185610b9b565b610dbc6040830184610baa565b94935050505056fea2646970667358221220db7acef49d4815cfad7143f345d597a5e51ff40a0e54befb12d94c6d0bee345464736f6c63430008140033",
  "linkReferences": {},
  "deployedLinkReferences": {}
}